:020000040800F2
:10000000603E00205101000899320008612E00086E
:1000100000000000000000000000000000000000E0
:10002000000000000000000000000000CF370008C2
:1000300000000000000000000F010008D137000898
:100040006301000863010008630100086301000800
:10005000630100086301000863010008D10A000879
:1000600063010008630100086301000863010008E0
:1000700063010008630100086301000863010008D0
:1000800063010008BD38000863010008630100082F
:1000900063010008630100086301000863010008B0
:1000A00063010008630100086301000863010008A0
:1000B000630100086301000863010008814900082A
:1000C0000448854600F072FC00480047DD8C0008BB
:1000D000C046C046603E0020084B196808682030C2
:1000E00080F30988022080F31488BFF36F8F3FBC30
:1000F000AE4608BC04BC62B618470000C00400202D
:10010000EFF3108072B6704780F310887047EFF3FA
:1001100009800E4B1A6820381060F0C044464D46E6
:1001200056465F46F0C008B572B60BF003FE62B6E5
:100130000CBC116808681030F0C8A046A946B24649
:10014000BB4680F309882038F0C81847C004002057
:100150000448804704480047FEE7FEE7FEE7FEE765
:10016000FEE7FEE761380008C100000830B50B4625
:10017000014600202022012409E00D46D5409D4281
:1001800005D31D469540491B254695404019154607
:10019000521E002DF1DC30BD70B50024254600282C
:1001A00001DA01244042002901DA01254942FFF722
:1001B000DDFFAC4200D04042002C00D0494270BD6F
:1001C00010B5202A04DB0846203AD040002110BD9B
:1001D0000B46D340D0402024A21A91400843194630
:1001E00010BD00000549064A08685043054A8018BA
:1001F000086040087047014908607047FC0400200F
:100200006D4EC6413930000003460B439B0703D0B7
:1002100009E008C9121F08C0042AFAD203E00B78CB
:100220000370401C491C521EF9D27047D2B201E043
:100230000270401C491EFBD270470022F6E710B541
:1002400013460A4604461946FFF7F0FF204610BD44
:1002500010B5044605E00B780370401C002B00D05D
:10026000491C521EF7D2204610BD421C0178401C8A
:100270000029FBD1801A704710B5002200E0521C03
:10028000835C8C5CA34201D1002BF8D1D8B2E1B2DF
:10029000401A10BD03460A780270401C491C002A0F
:1002A000F9D11846704730B505460020034600E0F6
:1002B0005B1C934205D2EC5CC85C201A01D1002C77
:1002C000F6D130BDF7B582B00F460026029C04F08F
:1002D00011FC0090006801902578641C002D05D069
:1002E00000F074FA0068405DC007F5D12B2D02D0F4
:1002F0002D2D1CD0641E0098002101603946204637
:10030000049A00F067FA0146002F04D03868A04232
:1003100001D1029838600098006802280BD000983C
:10032000019A0260700506D5484205B0F0BD012073
:1003300080020643DFE70846F7E770B5064604F09B
:10034000D9FB046805460A220021304600F096FADF
:100350002C6070BDF0B507460846584087B0C00F06
:10036000049048000E46590040084908BC1A8841CC
:1003700005D2384631461E4617460B4602465800FF
:10038000400810434DD0300D039040055900400DFA
:10039000490D0590401A0290402873DA1803012194
:1003A000000B09050843019004980092002806D02C
:1003B0001146019A49420020904100910190029813
:1003C00040210A1A0199009800F0DCF905460C4614
:1003D0006B4607CB00F0E6F9C0197141039A0E0D88
:1003E0000023D71756401A467A40164344D0049A41
:1003F000002A2DD0029A012A039A15DC1205C01A90
:10040000914101263605001C7141D20F059ED2078D
:100410000093019202962A46234600F074FA07B030
:10042000F0BD38463146FAE71605234A0F46B218A2
:10043000C01AB74101210905001C4F4100187F4136
:10044000114618187941E20F10436D19644113E009
:10045000E2076D0815436408C2071443039A012696
:100460001205C01A91413605001C7141CE074008A3
:1004700030434908C01851412A46234600F036FA55
:10048000CDE7FFE7049801224000C117121A0023AC
:100490008B4104983146C417381AA141EEE730B4B5
:1004A0000124E407634030BC54E730B40124E4077E
:1004B000614030BC4EE700000000E0FFF0B51FB423
:1004C00088B00B990998002448400999C00F490049
:1004D00049080991C0070B990090490049080B9100
:1004E00009990898A64608431CD00B990A98084316
:1004F00018D0099801244000420D4800410D099888
:1005000024050003000B204309900B980003000B07
:1005100020430B9050181C494018002201901446AB
:10052000104605E0002001460DB0F0BD032801DAB9
:10053000034600E003239C46C11A0AAE0AE05F00AE
:1005400008ADED5B4F00F75B7D430027AA187C41A7
:10055000491C5B1E6145F2DD410004AB5A52210487
:10056000120C0A43240C401C0828DFDB019802907F
:100570000099704601910090059B049A079906988E
:1005800000F0C1F9D0E700000DFCFFFFF0B50C460C
:100590005C4085B0E40FE40703944C000026640837
:1005A00059009446490802460296224321D06246E9
:1005B0000A431ED06200570D4A000E032303550D57
:1005C000012402462C492405781B1B0B360B4018CE
:1005D00023432643614600901C46501AB44103D37E
:1005E0000098401C009002E0921800985B4100289F
:1005F00003DA0020014605B0F0BD00200121090505
:100600000746864611E064461D46141BB54106D3D5
:100610006546521BB341744607430C43A646CD07BB
:1006200040084908284392185B4105460D43EAD12A
:100630001046184313D06046194650407140084395
:1006400006D06046101AB34106D20122002306E00C
:1006500000220123DB0702E00122D243531000985D
:1006600074460105381C6141029C039D00196941D3
:1006700000F03CF9BFE70000FD0300000EB505499E
:100680000291002100910A460B46019100F03BF9CE
:1006900003B000BD330400004A0009030123090B25
:1006A0001B051943094B10B5520D9A4201DA00207F
:1006B00010BD064B34339A4203DC9A1AFFF780FDD3
:1006C00010BD03495118884010BD0000FF03000011
:1006D000CDFBFFFF10B5002904DB0124E4074042F5
:1006E0008C412146002B04DB1C460123DB075242D0
:1006F000A3418B4200D1824210BD000010B50029F9
:1007000004DB0124E40740428C412146002B04DB3A
:100710001C460123DB075242A341994200D190427B
:1007200010BD0000F0B51FB40646002082B005469B
:100730004024019100901BE0019922460F4630466B
:10074000FFF73EFD049A059B801A994110D310468D
:100750001946224600F016F8361A8F4101972246B4
:1007600001200021009F00F00DF838184D41009045
:100770002046641E0028DFDC019B00982946324693
:1007800007B0F0BD10B5202A04DB0146203A9140A5
:10079000002010BD914020239C1A0346E3401943DA
:1007A000904010BD10B5202A06DBCB170846203A32
:1007B0001041C1170B4306E00B461341D0402024E3
:1007C000A21A91400843194610BD00000048704726
:1007D00060D60008F7B582B0029C00272078641C20
:1007E00015460197302802D0002D15D015E020784D
:1007F0000127641C782804D0582802D0002D09D085
:100800000BE0002D01D0102D07D1002710252078F6
:10081000641C02E0082500E00A250026009610E08E
:100820000099012769430818020C294680B27143D8
:1008300000908E183804864201D301200190207860
:10084000641C294600F0C4F80028E9DA039800285F
:1008500005D0002F01D0641E00E0029C04600198C6
:10086000002806D004F046F902210160C81E05B038
:10087000F0BD009930040843F9E70000F7B5009C8B
:100880000F4600262578641C002D05D0FFF79EFF3B
:100890000068405DC007F5D12B2D02D02D2D18D05A
:1008A000641E39462046029AFFF794FF002F04D0B9
:1008B0003968A14201D100993960710502240029EB
:1008C0000BDA4042002803DD04F014F90460A007AD
:1008D000FEBD012080020643E3E70028F8DA04F0B9
:1008E00009F904600048FEBDFFFFFF7F10B5002B33
:1008F00008DA0024401C614192185B411A4301D17F
:100900004008400010BDF0B51FB482B005460C0091
:1009100003D0084604F0CAF802E004F0C7F820301B
:100920000246009021462846FFF72CFF049B059ABB
:1009300004460F4618431143084314D01846104389
:100940001BD0009840210A1A18460599FFF738FC79
:1009500005460E46009A05990498FFF713FF0843D1
:1009600005D0012004E02046394607B0F0BD002044
:10097000C11705430E432C43374300990E98630576
:10098000401A7905E40A00220C43FD0A0A3002D518
:1009900000200146E9E70105101969410C9C0D9DF5
:1009A00000196941FFF7A2FFDFE70000064C0125AF
:1009B000064E05E0E36807CC2B430C3C9847103407
:1009C000B442F7D3FFF780FB8CD60008ACD6000802
:1009D0003A2800D23038202302469A43412A01D3D4
:1009E00010463738884201D30020C043704770B5A5
:1009F0008C180578401C6B075B0F01D10378401CF5
:100A00002A1106D10278401C03E006780E70401CC3
:100A1000491C5B1EF9D12B0705D40023521E0DD4AF
:100A20000B70491CFAE70378401CCB1A921C03E0B8
:100A30001D780D70491C5B1C521EF9D5A142D8D3FC
:100A4000002070BD10B502A004F00CF8002010BD0D
:100A5000435553544F4D5F4849445F4465496E695F
:100A6000745F46530A00000010B503A003F0FAFFBC
:100A700006490020087010BD435553544F4D5F4840
:100A800049445F496E69745F46530A001C040020A4
:100A900070B50C460A460546014604A003F0E2FF85
:100AA000012D01D109480470002070BD43555354F5
:100AB0004F4D5F4849445F4F75744576656E745F6E
:100AC00046532025642025640A0000001C040020F1
:100AD00010B5102000F0B2F810BD00B5002200F0F3
:100AE00001F800BD30B50E4B05465C7A0120012CA3
:100AF00015D8587A00241C54587A8000C0184560D4
:100B00005D7A184608302A54587A421C5A7230309E
:100B100008703A2048702F208870CC70002030BDBB
:100B2000F41E002031B500F04BF9009C0546601C16
:100B300000D0641C00F044F9401BA042FAD338BD39
:100B4000F0B58E46002259E0012393409C46714641
:100B50000B4052D0016855000324AC40A143016012
:100B6000D10889000D182F6A5607F10E0F268E4006
:100B7000B7432F628168A143816041686546A943FC
:100B80004160C168A143C16094081E49A400641873
:100B9000A16895072E0F0F25B5402F460F4009215C
:100BA000C906884201D1002114E01749884201D1C9
:100BB00001210FE01549884201D102210AE01449C0
:100BC000884201D1032105E01249884201D1042164
:100BD00000E00521B140B9420FD1A168A943A1604D
:100BE0000D490C689C430C604C689C434C608C68BD
:100BF0009C438C60CC689C43CC60521C7146D140B5
:100C0000A2D1F0BD000001400004004800080048E7
:100C1000000C00480010004800040140C820FFF705
:100C200081FFBFF34F8F04490248C860BFF34F8F65
:100C300000BFFDE70400FA0500ED00E010B504492F
:100C40004A69024202D04861FFF7E8FF10BD000088
:100C500000040140F8B5002292E001249440A4462B
:100C600023407DD04C68022C01D0122C0CD1D4082A
:100C7000A4002618356A5407E40E0F27A740BD4389
:100C80000F69A7402F433762066855000324AC4024
:100C90000F79A643BF07BF0FAF40374307604E68C9
:100CA000012E05D0022E03D0112E01D0122E0ED10E
:100CB0008668CF68A643AF4037438760476866467B
:100CC000B7430E79F606F60F96403E434660C66877
:100CD000A6438C68AC403443C4604C68E4004ED5F5
:100CE0002A4CA56901263543A561A46995083440BD
:100CF0000094274CAD002F19BD689407240F0F26D0
:100D0000A640B5430926F606B04201D1002614E0FC
:100D1000204EB04201D101260FE01F4EB04201D15A
:100D200002260AE01D4EB04201D1032605E01C4E0A
:100D3000B04201D1042600E00526A6402E43BE6045
:100D4000184D2C684E689C43F60300D51C432C605C
:100D50006C684E689C43B60300D51C436C6000E091
:100D60000DE0AC684E689C43F60200D51C43AC60B5
:100D7000EC684E689C43B60200D51C43EC60521CE4
:100D80000B681C46D44000D067E7F8BD0010024055
:100D9000000001400004004800080048000C004822
:100DA00000100048000401400069084000D0012004
:100DB0007047002A01D0816170478162704700004E
:100DC00001480068704700002004002070B504004E
:100DD00005D025466035687A002802D006E001205B
:100DE00070BD00202872204601F0B2FF24206872F6
:100DF00020680168490849000160204602F050FE61
:100E00000128EDD0606A002802D0204602F0A8FD3B
:100E1000206841680922D2029143416020688168BC
:100E200022229143816020688168082211438160F9
:100E300020680168012211430160204602F0F6FD9E
:100E400070BD70B5024640325378202B1CD1137808
:100E5000012B19D0012414702423537003681D68DA
:100E6000A5431D6003681D682603B5431D60036824
:100E70001D680D431D60006801682143016020204A
:100E800050700020107070BD022070BD70B5024619
:100E900040325378202B1BD11378012B18D0012519
:100EA00015702423537003681C68AC431C600368EE
:100EB0001C680F263602B4430902214319600068FA
:100EC000016829430160202050700020107070BD1F
:100ED000022070BD70B5040006D025464035687804
:100EE0000026002802D005E0012070BD2E702046AB
:100EF00000F082F9242068702068016849084900E0
:100F000001600F2160680906884321680861206834
:100F100082680121C9038A438260E0680128A068D1
:100F200008D021229202104322689060E0680228D3
:100F300002D005E00843F7E701202268C0025060B4
:100F4000206842680F4B1A4342602068C2688A4397
:100F5000C260616920690843A169090208432168E8
:100F6000C860216AE0690843216808602068016858
:100F70000122114301606664202068702663AE7010
:100F8000002070BD00800002FFB50446002083B041
:100F90002546403501906A781F46202A7ED1226876
:100FA0009269D243120479D52A78012A76D0012297
:100FB0002A7024226A7060648805800D0290E068BF
:100FC000012802980BD00521C9024018012189028D
:100FD000884321684860FFF7F3FE06460FE030497A
:100FE000F3E7781C0BD0002F04D0FFF7E9FE801B3D
:100FF000B84204D9202068700020287043E020689F
:101000008169C943890606D58069C043C00602D5F7
:101010006878A028E5D1206880693B46C043C006B7
:1010200000960ED500222021204601F0AFFF0028B7
:1010300029D121682020C86168700020287007B07D
:10104000F0BD00222021204601F0A0FF00281AD187
:1010500021681020C86121682020C8610198411CC6
:1010600001910599884214D12068416801229203B8
:10107000114341603B46002220212046009601F0AA
:1010800085FF002802D00320D9E707E0216820204F
:10109000C86101990598814291D3ABE70220CEE760
:1010A00000200002FFB5054604464035687883B04D
:1010B000202876D10C98002874D00D98002871D083
:1010C000287801286DD001202870FFF779FE0746A7
:1010D000012200901923D103204601F057FF002878
:1010E00053D1212068704020A870002666640C98B7
:1010F00060620D98608566630E980090019704A960
:101100000EC9204601F0FAFE002804D0606C2E7053
:1011100004286AD039E0608DFF2805D9FF22228596
:1011200001231B06009606E0608D20850096208D29
:101130000123C2B25B062046049901F015FF3A462E
:1011400020460E9901F06DFF002803D0606C042842
:101150004BD01AE0606A411C6162216800788862A5
:10116000608D401E6085208D401E0004000C20858F
:1011700024D1608D002821D00097002280212046B4
:101180000E9B01F003FF002802D0032007B0F0BD42
:10119000608DFF2807D9FF22228501231B060096B8
:1011A00008E024E021E0608D20850096208D012359
:1011B000C2B25B062046049901F0D6FE608D00287D
:1011C000BDD13A4620460E9901F004FF0028BDD15A
:1011D00020682021C16120684268064B1A404260A5
:1011E0006970AE702E700020D0E70120CEE702209B
:1011F000CCE7000000E800FE00B500680E4987B0AB
:10120000884216D103200002009012200121019093
:10121000032002910491039069460848FFF71AFDE4
:101220000748C269012149050A43C261C0690840F3
:10123000059007B000BD00000054004000040048C5
:101240000010024070B504000FD0216813480860F8
:1012500021681348086003CC41602068083C21687D
:101260008860FFF7ADFD054608E0012070BDFFF77F
:10127000A7FD401B272801D9032070BD2068C06846
:101280000028F4D120680269E1688A4201D0016136
:1012900001E004490160002070BD0000CCCC0000DA
:1012A00055550000AAAA000000680249016000200C
:1012B00070470000AAAA000002480168491C0160AA
:1012C000704700002004002010B506480168102275
:1012D00011430160002000F007F800F041F8002001
:1012E00010BD00000020024000B5014687B000227A
:1012F000112000F061F8112000F054F81348C26981
:1013000010210A43C261C0690840059004A96846DB
:1013100000F034FF00F054FF0D49FEF727FF0E499F
:101320000C4A0A600D4A401ECA60486000200861ED
:101330008860084601F026FC002802D0012007B092
:1013400000BD054801F039FCF9E70000001002403B
:1013500040420F0000100040B41E0020E7030000D0
:1013600008B50F48816901221143816181691140EB
:101370000091C26901040A43C261C06900220840A9
:1013800000901146501F00F017F803210022481F5B
:1013900000F012F803210022081F00F00DF808BD2C
:1013A00000100240C106C90E0120884001490860B2
:1013B0007047000000E100E010B501F06FFF10BDC4
:1013C000BFF34F8F04490348C860BFF34F8F00BF7E
:1013D000FDE700000400FA0500ED00E010B50C0682
:1013E00006D54906490E1C2461430818283004E03C
:1013F0001C2461430818FF30093099B2002A06D036
:1014000001228272C180190C0181002010BD0022CE
:1014100082728180F9E71C224A43121810B5FF300E
:10142000FF300230926BC06902F058FF10BD1C22E1
:101430004A43121810B5FF30FF32FF30013202303C
:101440009269C06902F0A5FF10BD0000F0B54A0620
:10145000520E13461C256A43CC091218002C01D0E9
:10146000283201E0FF32093213700346C909FF3305
:101470005170E133197A01293DD001211972957A11
:10148000494C002D4949557837D0002D056816780C
:10149000AC465BD0B600AD5B6F0404D5444F0D4045
:1014A0003D436746BD5305681678AC46B600AD5B54
:1014B0006F0605D53C4F0D4040373D436746BD5351
:1014C00015780668AF00F55B0D4039490D43F553BB
:1014D000364F117830373D400668890025437552F4
:1014E0001178334A00688900F13A15402543455286
:1014F00000201872F0BD0220F0BD002D056816789E
:10150000AC4610D0B600AD5B6F0605D50D40264940
:1015100040310D4361468D53117800688900234D99
:10152000425A30350EE0B600AD5B6F0404D50D4075
:101530001F490D4361468D531178006889001C4D89
:10154000425AF13D2A4022434252D1E7B600AD5BF8
:101550006F0404D5164F0D403D436746BD530568E3
:101560001678AC46B600AD5B6F0605D50E4F0D4044
:1015700040373D436746BD5315780668AF00F55BBD
:101580000D40094940310D43F553094F1178F13FA2
:101590003D4006688900254375521178034A890049
:1015A00000683032A1E70000808000008F8F0000CB
:1015B00080C00000F0B54B06CA095B0E002A04D0BB
:1015C0001C225A431218283204E01C224A431218E3
:1015D000FF320932002494701370C909517001461A
:1015E000FF31E1310B7A012B1AD001230B725378B2
:1015F0001A4E002B1378046814D09D00635B5F06BD
:1016000003D53340164E3343635303681078134CAD
:1016100080001A5A3034224010246240202414E002
:101620000220F0BD9D00635B5F0403D533400D4E87
:1016300033436353036810780A4C80001A5AF13C14
:10164000224001242403624064006240044C403C78
:1016500022431A5200200872F0BD00008F8F000054
:10166000C080000080C00000F0B54D066D0E1C2447
:101670006C43CE092418002E01D0283401E0FF3439
:1016800009342570C90961700146FF31E260E1311A
:10169000E3708C46097A01290DD0012261460A7255
:1016A000E178934B002908D001291ED002290DD0E2
:1016B000032923D111E00220F0BD227801689200B5
:1016C0008D5A1D40FF35FF35023504E02278016850
:1016D00092008D5A1D408D5210E0227801689200D0
:1016E0008D5A1D4003235B0206E0227801689200B8
:1016F0008D5A1D4001239B02EB188B5226780768F8
:10170000B300FD5A7B497C4A0D4015433543FD52D9
:10171000A37A002B53D02378784E0D4007689B00A6
:101720003543FD52E38850265D0803686D00F65A84
:10173000F6182378DF0001239B02FB18F55223895A
:1017400050265D0803686D00F65AF6182378DF000E
:101750005311FB18F5526378002B77D02378076874
:101760009D007B5B5E0403D5654E0B4033437B538A
:10177000237807689D007B5B5E0604D55E4E0B40B8
:10178000403633437B53237805689E00AB5B0B40A8
:101790005B490B43AB53574E2178303633400568D5
:1017A000890013436B522178554C00688900F13C45
:1017B000234013434352002061460872F0BD637812
:1017C000002BA3881FD05D0803685026F65A6D00D1
:1017D000F6182378DF0001239B02FB18F5522378CB
:1017E00007689D007B5B5E0604D50B404249403193
:1017F0000B437B532178006889003E4C435A3034B8
:101800002340202440E05D0803685026F65A6D000E
:10181000F6182378DF003B4BFB18F5520368502580
:10182000ED5A384EEB182578B61CED00AD195E194F
:10183000E3683E2B0BD9DD022D0CDB0601D16D1EBA
:10184000ADB2AB020125ED032B4307E01EE0DD0343
:101850002D0CDB0701D06D1CADB2AB0233802378B9
:1018600007689D007B5B5E0403D50B4024490B4356
:101870007B53217800688900214C435AF13C234076
:101880000124240363406400634092E723780568E1
:101890009F00EB5B5E0403D5194E0B403343EB53C3
:1018A000237807689D007B5B5E0604D5124E0B40D3
:1018B000403633437B53237805689E00AB5B0B4077
:1018C0000D4940310B43AB530D4E2178F13E33406F
:1018D0000126360373407600734005688900134380
:1018E0006B522178034C89000068303460E70000B7
:1018F0008F8900008F8F00008080000080810000B1
:1019000080C0000004040000F0B54906490E1C2404
:101910004C432418FF34002519342CC41C3C0346C6
:101920006570FF332170E133197A012908D0012154
:1019300019726269E1688A4204D9521A626103E04D
:101940000220F0BD11466561A27A002A05D06278B6
:10195000002A19D0012A37D059E002685026B65A19
:10196000B6182278D700324ABA18B6183E293ED99E
:10197000CA02120CC90637D091020122D2031143C8
:1019800000E09102318042E002685026B65AB61853
:101990002278D700264A121FBA18B6183E290AD94B
:1019A000CA02120CCF0601D1521E92B29202012736
:1019B000FF033A4306E0CA03120CCF0701D0521CC2
:1019C00092B29202328009E002685026B65AB618E6
:1019D0002278D700164A121FBA18B1526278002A2C
:1019E000BBD0012A0AD012E0521E92B2C4E7CA0349
:1019F000120CC907C5D0521C92B2C2E70268502629
:101A0000B65AB6182278D700094ABA18B1520168F6
:101A10002078084C80000A5A2240012424036240A6
:101A200064006240044C22430A521D720020F0BD43
:101A3000060400008FBF000080800000F0B5034660
:101A4000FF33E1331A7A012A0BD001254A06CC096B
:101A5000520E1D72002C06D01C2454432418283426
:101A600006E00220F0BD1C244C432418FF34093446
:101A7000A5702270CD0965700126360310270F4C22
:101A8000002A09D049060068C90D425A002D0CD021
:101A90000B4D2A407A400CE000680A4A0188114048
:101AA000714079402143018005E0064D303D2A40D8
:101AB00072402243425200201872F0BD8080000024
:101AC000BF8F0000BFBF0000F0B506464806400EBD
:101AD0001C2141438C19E3630021A263216401218D
:101AE000283437466170FF372070E137387A012893
:101AF00006D03972E5686069A84203D9401B03E04B
:101B00000220F0BD054600206061A07A00280CD0BC
:101B1000217830688A00825C520662783AD54A4B56
:101B2000002A13D0012A2DD032E0ABB2A28821695D
:101B3000306801F082FD30685021095A0918207878
:101B4000C2004148001F10180D526AE05022125A7C
:101B5000C9001018C91841183E2D0AD9E802000C16
:101B6000EA0601D1401E80B280020122D203104356
:101B700006E0E803000CEA0701D0401C80B28002B6
:101B8000088005E05022125AC9001018C9184552A1
:101B900022892BE0002A02D0012A1ED025E0502203
:101BA000125AC90012182848001F081811183E2D93
:101BB0000AD9E802000CEA0601D1401E80B2800278
:101BC0000122D203104306E0E803000CEA0701D02B
:101BD000401C80B28002088007E05022125A101880
:101BE000CA001949091F51184552E288ABB2216950
:101BF000306801F022FD6078144A002802D00128E4
:101C000007D00EE0217830688900435A1340104A0B
:101C100005E0217830688900435A13400D4A134388
:101C20004352207831688000084B0A5A30331A40FA
:101C300010235A4020235A40054B403B1A430A5276
:101C400000203872F0BD0000060400008F8F0000F5
:101C5000C080000080C0000070B5044600684030BD
:101C60008088C00B02D0204601F03AFB206840304B
:101C7000818849050AD58188334A114081802046F0
:101C800000F0DAF80021204600F000F9206840302A
:101C90008188490403D581882C4A114081802068BD
:101CA00040308188890403D58188294A1140818088
:101CB0002068403081880425C904002910DA018891
:101CC000A9430180BD2021680002403108802046E0
:101CD00000F0BEF82068403081881E4A11408180A3
:101CE000206840308188090517D581881A4A11403B
:101CF00081802068403001880822114301802068DB
:101D00004030018829430180206840308088C043EA
:101D1000C00402D5204600F0E3F8206840308188F6
:101D2000890506D581880D4A11408180204600F042
:101D3000A5F8206840308188C90503D58188084A04
:101D40001140818070BD0000FFFB0000FFBF00005C
:101D5000FFDF0000FFEF0000FFF70000FFFD0000C5
:101D6000FFFE0000F8B500270446002807D02546EE
:101D7000FF35E135687A0026002802D005E0012011
:101D8000F8BD2E72204600F03BF803206872012255
:101D90000BE01C2078430019014620314A720F7273
:101DA000CE72466386637F1CC6636068B842F0D813
:101DB00000210BE01C2048430019FF30013046721F
:101DC0000172C67246618661491CC66160688842BC
:101DD000F0D82068403002802068403006802068BB
:101DE00040308680206840300682BF202168000293
:101DF00040310880203426716A720020F8BD00004E
:101E000008B500680A49884210D10A48C269012110
:101E1000C9050A43C261C06900220840009003213D
:101E20001F20FFF7C9FA1F20FFF7BCFA08BD00000A
:101E3000005C00400010024010B5C41DFF34FA34AD
:101E40000121E06902F09DFBE06902F062FB10BD38
:101E500010B504468069002806D0074801690622AB
:101E60009143016101F0B8FCFF34FF340234E069B2
:101E700002F072FB10BD000000ED00E0FF3010B575
:101E8000FF300230C06902F06DFB10BD0246FF3228
:101E9000E132137A012B08D001231372002906D0F6
:101EA00020300171002010727047022070470068D6
:101EB000802140308181F5E710B5872189000A58DB
:101EC0000146FF31ED31104602F071FB10BD006894
:101ED0004030018B0122D20311430183002070475F
:101EE00010B50446FF30FF300230C06902F0B4FB89
:101EF000A069002804D0034801690622114301614A
:101F000010BD000000ED00E0F8B504460068434D48
:101F1000C00353D5E8690026C00007D4E969280446
:101F20000143E961E9690140012600913C480168EB
:101F3000C90510D40168821511430160FEF740FF06
:101F4000074604E0FEF73CFFC01B642823D8344852
:101F50000068C005F6D5286A0321090208401FD091
:101F600062680A4082421BD0286A2A6A884301219B
:101F700009040A432A622A6A8A432A622862C0073D
:101F80000ED0FEF71DFF074607E0FEF719FFC11B45
:101F90002448814201D90320F8BD286A8007F4D57E
:101FA000286A032109028843616808432862002ED9
:101FB00004D0E969012000078143E9612078C00766
:101FC00005D0286BA168800880000843286320782A
:101FD000800706D5286B032109048843E16808437C
:101FE00028632078800605D5286B10218843216955
:101FF000084328632068800305D5286B8021884327
:10200000A169084328632088400505D5286B402135
:1020100088436169084328630020F8BD001002402E
:102020000070004088130000F8B505464E480E4683
:102030000068C007C00FB0420AD24B480168490887
:102040004900314301600068C007C00FB04270D141
:102050002878464F800705D57868F0218843A9681D
:10206000084378602878C00753D06868012817D0E3
:10207000022818D0032819D039688907002958DAAE
:1020800079688908890001437960FEF799FE044662
:102090006868012813D002281DD0032827D034E017
:1020A00039688903EAE739688901E7E7796BC90389
:1020B000E4E7FEF785FE011B2D48814223D87868AE
:1020C0000007800F0128F4D123E0FEF779FE011B01
:1020D0002748814217D878680007800F0228F4D17A
:1020E00017E0FEF76DFE011B214881420BD878688E
:1020F0000007800F0328F4D10BE0FEF761FE011BFF
:102100001B48814201D90320F8BD78680007800F81
:10211000F3D115480168C907C90FB1420BD901684D
:1021200049084900314301600068C007C00FB04250
:1021300001D00120F8BD2878400706D5786807212E
:1021400009028843E9680843786000F049F8796833
:10215000084A0906090F515CC84007490860002079
:10216000FFF7C2F80020F8BD002002400010024036
:102170008813000048C500080000002010B50722A1
:1021800002600A4A53689B079B0F43605368F02420
:1021900023408360526807231B021A40C260044830
:1021A0000068C007C00F086010BD000000100240AA
:1021B0000020024001480068704700000000002035
:1021C0000448054900684968044A4905490F515CBB
:1021D000C8407047000000200010024058C50008A9
:1021E00030B516A00FC889B06C460FC417A00FC831
:1021F0000FC41A4D6A680C20114601401848042982
:1022000005D0184B082904D00C2900D1184609B074
:1022100030BD9102090F6C46645CE96A04AD0907A0
:10222000090FD203695C920F022A02D0032A00D15F
:102230001846FDF79BFF6043E9E700000203040531
:10224000060708090A0B0C0D0E0F101001020304FB
:1022500005060708090A0B0C0D0E0F1000100240AE
:1022600000127A00006CDC02FEB504460078EF4EE6
:10227000EF4DC00747D068680007800F012818D0CD
:1022800068680007800F022804D16868C003800FC7
:1022900002280ED06068012812D00121890400288C
:1022A00001D0052816D02868B043286028688843E4
:1022B00008E02868800326D56068002873D022E0F3
:1022C0002868304328606068002810D0FEF778FD49
:1022D000074608E0286808432860F1E7FEF770FD2C
:1022E000C01B642870D828688003F7D50BE0FEF780
:1022F00067FD074604E0FEF763FDC01B6428F1D8C4
:1023000028688003F7D4207880073ED568680007E6
:10231000800F14D068680007800F022804D1686815
:10232000C003800F01280AD0E068002828681DD06B
:10233000012108432860FEF743FD07460BE02868AB
:1023400080070BD5E06801282DD107E0FEF738FDA6
:10235000C01B0228C6D828688007F7D52868F8214E
:1023600088432169C900084328600EE04008400006
:102370002860FEF725FD074604E0FEF721FDC01B9F
:102380000228AFD828688007F7D42078000724D522
:10239000E0690028686A10D0012108436862FEF7EE
:1023A0000FFD074605E03FE1FEF70AFDC01B0228CE
:1023B00098D8686A8007F7D50FE040084000686247
:1023C000FEF7FEFC074605E0C3E0FEF7F9FCC01B84
:1023D000022887D8686A8007F7D420780427400746
:1023E000002861DA00200190E869C00008D4E9699A
:1023F000B8060143E961E9690140012000910190BB
:102400008C480168C90511D4016882151143016027
:10241000FEF7D6FC009005E0FEF7D2FC0099401ACA
:10242000642897D883480068C005F5D5A0680128BE
:102430000AD0002801D0052811D0286A40084000A1
:102440002862286AB84302E0286A0121084328620A
:10245000A068002812D0FEF7B3FC00900AE0286ABA
:1024600038432862F0E7FEF7ABFC0099411A724846
:1024700081426ED8286A8007F5D50DE0FEF7A0FCF2
:10248000009006E0FEF79CFC0099411A6A488142E0
:102490005FD8286A8007F5D40198002804D0E8693D
:1024A000012109078843E8612078C00635D56069B5
:1024B00001280CD0401D686B24D038436863686BDA
:1024C000400840006863FEF77BFC074622E0686B2B
:1024D00038436863686B012108436863FEF770FC4A
:1024E000074604E0FEF76CFCC01B022831D8686B7D
:1024F0008007F7D5686BF8218843A169C9000843B4
:1025000068630AE0B8436863F4E7FEF759FCC01B50
:1025100002281ED8686B8007F7D42078800637D54C
:1025200068680007800F032814D068680007800FD0
:10253000022804D16868C003800F03280AD0206AEB
:102540000028686B16D030436863FEF739FC0646F6
:102550000CE062E0686BC0031AD5206A012863D1E1
:1025600016E0FEF72DFC801B022856D8686BC003CE
:10257000F7D50DE0B0436863FEF722FC064604E0A1
:10258000FEF71EFC801B022847D8686BC003F7D4F7
:10259000606A002846D069680907890F022943D07C
:1025A00001273F060228286805D0B8432860FEF7B7
:1025B00007FC044633E0B8432860FEF701FC0646FA
:1025C00004E0FEF7FDFB801B022826D82868800166
:1025D000F7D4E86A216B000900010843E862A16AA8
:1025E000E06A084369687B22D2039143084368602C
:1025F000286838432860FEF7E3FB044604E0FEF752
:10260000DFFB001B022808D828688001F7D509E005
:10261000FEF7D6FB001B022801D90320FEBD286867
:102620008001F5D40020FEBD0120FEBD00000100A8
:1026300000100240007000408813000070B50400D4
:1026400010D0022025464035687720680168402276
:1026500091430160204600F063F80020206668770F
:10266000287770BD012070BDF8B5040007D00026A2
:1026700025464035A662687F002802D005E001208B
:10268000F8BD2E77204600F05FF802226A772068B6
:1026900001684023994301600723E0681B029842C8
:1026A00001D9002101E0012109030F273F02B842AF
:1026B00002D0984200D0A662276B002F05D1984225
:1026C00001D9226301E001202063A2686068636988
:1026D000104322691A4310430123A2695B021A4086
:1026E0001043E2691043226A1043A26A1043226831
:1026F0001060626B606AA36910431B0C0427E268D8
:102700003B401A4310430843216848602068C16970
:102710007A029143C1612666012068770020F8BDE6
:1027200010B500680649884209D1064881698214BB
:10273000914381610920E021C006FEF701FA10BD36
:10274000003001400010024000B500680D4987B01C
:10275000884215D10C48826981140A4382618069DC
:1027600008400590E0200090022001900021032005
:1027700003900291049109206946C006FEF76AFAA7
:1027800007B000BD0030014000100240FFB5044614
:1027900083B00020274640370090387F1E460D4604
:1027A000012809D001203877FEF70AFB0190787FD5
:1027B000012804D0022050E0022007B0F0BD002D17
:1027C0002FD0059800282CD0032078770020206691
:1027D000A5630599A1870599E1872064B880F880F1
:1027E0002065E0640121A068C903884205D1206802
:1027F00001680122920311430160206801684906C3
:1028000003D401684022114301600720E1680002FF
:10281000814260682CD9002805D0E08F012802D0C1
:1028200022E0012019E021682888C86005E02068BE
:102830008168890706D52988C160E08F401EE0873E
:10284000AD1C11E0002E07D0701C0DD0FEF7B8FAB9
:102850000199401AB04207D30320009001207877F5
:10286000002038770098A8E7E08F0028DFD131E01A
:10287000002802D0E08F012829D1E08F012803D958
:1028800021682888C8600CE02168287808730FE068
:1028900020688168890710D5E18F012906D9298828
:1028A000C160E08F801EE087AD1C10E029780173C5
:1028B000E08F401EE0876D1C09E0002ECCD0701C1C
:1028C00005D0FEF77DFA0199401AB042C4D2E08FDC
:1028D0000028DDD131462046019A00F0C1FE0028D3
:1028E00001D020202066A068002803D12068C1689C
:1028F00080680190206E002893D1AFE7FFB50446B1
:1029000083B0012001900020254640350090287FAB
:1029100017460E4601280FD001202877FEF750FAFF
:102920000290687F616801280DD0CA1FFD3A08D166
:10293000A168002905D102E0022007B0F0BD0428FB
:1029400001D0022075E0002E26D0002F24D006985A
:10295000002821D0687F042801D005206877002056
:10296000206627640699E9800699A980A6630699DE
:10297000E1870699A187E06420650723E1681B02CF
:10298000994202D8E888012808D9206842680121C4
:1029900009038A43426007E001204AE02068416859
:1029A000012212031143416020680168490603D4E3
:1029B0000168402211430160E1686068994246D98C
:1029C000002802D0E08F01283AD121683088C86001
:1029D000E08F401EE087B61C32E0019800280ED040
:1029E000E08F00280BD020688168890707D53188DF
:1029F000C160E08F401EE0870020B61C0190E8888F
:102A000000280BD020688168C90707D0C0683880CB
:102A1000E888401EE8800120BF1C01900C98401CF3
:102A20000ED0FEF7CDF90299411A0C98814207D3D6
:102A300003200090012068770020287700987CE729
:102A4000E08F0028C9D1E8880028C6D165E00028B9
:102A500002D0E08F01285AD1E08F012807D92168E0
:102A60003088C860E08F801EE087B61C4FE0216888
:102A700030780873E08F401EE087761C47E00198AD
:102A8000002818D0E08F002815D0206881688907B9
:102A900011D5E18F012906D93188C160E08F801EF0
:102AA000E087B61C05E031780173E08F401EE087B7
:102AB000761C00200190E88800281ED020688168DC
:102AC000C9071AD0E98801290FD9C0683880E88879
:102AD000801EE880E888BF1C01280CD82068416867
:102AE000012212031143416005E0007B3870E88841
:102AF000401EE8807F1C012001900C98401C06D0ED
:102B0000FEF75EF90299411A0C98814290D2E08F4B
:102B10000028B4D1E8880028B1D12046029A0C9947
:102B200000F09EFD002801D020202066206E0028A5
:102B300000D031E77EE70000042204490428086938
:102B400002D09043086170471043FBE700E000E0CB
:102B5000094910B5401E884201D9012010BD074C1B
:102B600060610321081F00F099FB0020A06107208D
:102B70002061002010BD0000FFFFFF0000E000E02A
:102B80007047704770B5040005D025462035687F32
:102B9000002802D006E0012070BD002028772046E2
:102BA00000F00AF802206877211D206800F08EFEF0
:102BB00001206877002070BD70470168CA68012352
:102BC0001A43CA6000680168194301600020704719
:102BD000704770B50446006801690025C94389073C
:102BE000002915DBC168C943890711D4E91E0161B9
:102BF00001202077206880698007204602D0FFF7F7
:102C0000E7FF04E000F096F8204600F094F82577FE
:102C100020680169C943490717D4C168C9434907F6
:102C200013D40421C9430161022020772068806900
:102C30008005800F204602D0FFF7CAFF04E000F0B5
:102C400079F8204600F077F8257720680169C943B4
:102C5000090716D4C168C943090712D40821C9431A
:102C60000161042020772068C0698007204602D0D7
:102C7000FFF7AEFF04E000F05DF8204600F05BF8DF
:102C8000257720680169C943C90617D4C168C943BB
:102C9000C90613D41021C943016108202077206898
:102CA000C0698005800F204602D0FFF791FF04E045
:102CB00000F040F8204600F03EF8257720680169D2
:102CC000C943C90708D1C168C943C90704D1891ECE
:102CD0000161204600F030F820680169C943090607
:102CE00009D4C168C943090605D48021C9430161DB
:102CF0002046FFF745FF20680169C943490609D40A
:102D0000C168C943490605D44021C9430161204631
:102D100000F01CF820680169C943890609D4C1681C
:102D2000C943890605D42021C94301612046FFF724
:102D300028FF70BD7047704710B50068024988428F
:102D400001D1FEF7B9FA10BD001000407047000035
:102D500000B500680E4987B0884216D10D488269D7
:102D6000012189030A438261806908400590481166
:102D70000090122001900121032003900291049100
:102D800009206946C006FDF765FF07B000BD0000D9
:102D90000038014000100240FFB507460546603785
:102DA000787A83B00C46202858D1002C0CD0059896
:102DB000002809D00120A9680003814207D12869B1
:102DC000002804D1E00702D0012007B0F0BD387A16
:102DD000012843D0012038720020E8662120787253
:102DE000FDF7EEFF01902E4640360598308205989B
:102DF000708218E0708A401E70820698009000224F
:102E000080212846019B00F0F9FE002818D10120FE
:102E1000A9680003814202D12869002812D02968DC
:102E200020780885641C708A0028E3D106980090F9
:102E3000002240212846019B00F0E0FE002808D037
:102E40000320C2E720882968C005C00D0885A41C9E
:102E5000E9E72020787200203872B6E70220B4E754
:102E6000FEF7AEFAFEE701688A69D243920701D401
:102E700000228A6200688169C943C90703D0816959
:102E80000122114381617047F8B504460068174676
:102E900080690E46C043C0062CD4254640352068C4
:102EA0008069C04380060FD5701CF8D0002E04D076
:102EB000FDF786FFC01BB042F1D9202068700020CA
:102EC000A87028700320F8BD21681020C861206810
:102ED0002026C6612046FFF7C6FF20684168064AE3
:102EE00011404160042060646E700020A87028705A
:102EF0000120F8BD0020F8BD00E800FEF8B504464A
:102F00000120164640031D46DAB2C3020090079F17
:102F1000204600F029F83A462046069900F081F84C
:102F2000002803D0606C04281BD018E02846F5B2B6
:102F3000012809D02168300A88623A46204606995D
:102F400000F06FF80028EDD120688562009700221C
:102F500080212046069B00F019F8002800D00320AD
:102F6000F8BD0120F8BD000070B50068049D4468FC
:102F70008905890D1204044E114319433440294335
:102F80002143416070BD0000009800FCF8B51C466C
:102F900017460E46054611E0601C0FD0002C05D0E8
:102FA000FDF70EFF0699401AA04207D920204035B0
:102FB00068700020A87028700320F8BD2868816917
:102FC0003046884304D00020B842E5D00020F8BD48
:102FD0000120F9E770B516460D4604461AE0324660
:102FE00029462046FFF750FF002801D0012070BD80
:102FF000002D04D0FDF7E4FE801BA8420AD9616CC5
:10300000202001436164403460700020A070207073
:10301000032070BD20688069C0438006DFD4002093
:1030200070BD70B516460C4605461CE0324621467A
:103030002846FFF729FF002801D0012070BD601C41
:1030400011D0002C04D0FDF7BBFE801BA0420AD992
:10305000696C202001436964403568700020A870C5
:103060002870032070BD28688069C0438007DDD4C4
:10307000002070BD10B504490448FDF72EFD02493B
:10308000491E087010BD0000FD020020E80200206B
:10309000F0B5374887B042690121C9040A4342614B
:1030A00042690A4005924269C9000A434261426985
:1030B0000A400592426949110A43426142690A4045
:1030C0000592426949000A4342614069294E08401D
:1030D0000927FF060590002231463846FDF769FEB4
:1030E000012211462448FDF764FE07204003002416
:1030F00001256A4631C269462048FDF7ABFD032031
:103100006A4631C269461E48FDF7A4FD029469462D
:103110003846009601950394FDF79CFD19486A46D0
:1031200031C269463846FDF795FD102000901648DB
:103130000190694602953846FDF78CFD0095029492
:1031400069460D4801950394FDF784FD0F486A46D2
:1031500031C269460848FDF77DFD002203210720A2
:10316000FEF72AF90720FEF71DF907B0F0BD0000B1
:10317000001002400104000000040048000800485C
:10318000001400480681000000003110F8E0000043
:1031900010B5124810490160114941600021816059
:1031A0000161416181610122C161C2600162FDF77B
:1031B00091FE002800D0FEE700210848FDF741FEFF
:1031C000002800D0FEE700210448FDF75FFE00283C
:1031D00000D0FEE710BD0000005400404818002059
:1031E0000B02000010B510480E490160FF210531A7
:1031F000416000210722816012020161C260012248
:1032000041615202826101624162082281620723A8
:10321000C261C36242630163FFF726FA002800D04F
:10322000FEE710BD00300140A418002010B50C4886
:103230000A490160E1214902416000218160C160C9
:1032400001618161C1610822016242614162FDF751
:10325000BDFD002800D0FEE710BD00000038014091
:103260000819002010B500220749084800F0F7FFB0
:103270000749064801F01FFA0649044800F0FCFD22
:10328000024801F069FA10BD0403002088190020EB
:10329000300400200C040020704700008307FF2248
:1032A000DB0E9A408907090E994000280BDA0007C7
:1032B000000F0838830808489B001818C369934317
:1032C0000B43C3617047830804489B0018180368C8
:1032D00093430B430360704700ED00E000E400E01F
:1032E000F0B585B0044600206946088020462030AD
:1032F000029073E19A8917073F0F24D0B90001911A
:10330000415A19801A8812047ED5BC4A1140019A8C
:1033100081521C2078430519FF350935A87A002809
:10332000206872D029788A00825A52046ED55022C1
:10333000125ACB00B24912185918515A8E05B60DBF
:103340007ED0EA88BDE09A89D2062AD40188AD4AA7
:1033500025461140018020685021095A2835091856
:103360002878C200A6481018085A8005800D2064ED
:10337000A16B0818A06300212046FEF74CF80298C4
:1033800000790028B5D068690028B2D10298007988
:10339000802108432168403188810299002008710A
:1033A0001CE12546FF35028809351A801B881B055C
:1033B00019D5098A09182878C2009148001D1018EB
:1033C000085A294683059B0DAB61AA88E431206821
:1033D00000F01EF92068894A0188114001802046CA
:1033E000FEF76AFDFAE0694609880904D8D58349E1
:1033F000834E0A40028020685021095A361D081861
:103400002978C900891902E07FE03CE04DE0405A8C
:1034100083059B0DAB6108D0AA882969206800F05C
:10342000F7F8A96928694018286100212046FDF7AE
:10343000FEFF20685021095A08188219E86800E048
:1034400043E03E280AD9C102090CC00601D1491E39
:1034500089B288020121C903084306E0C103090CAF
:10346000C00701D0491C89B2880210802068664AD2
:103470000188114001221203514052005140634A19
:1034800011430180AAE05021095A0A182978CB007B
:103490005B49091D5918515A8E05B60D20D0AA88CE
:1034A0003346296900F0B4F81AE05022CB00125AD2
:1034B00053491218091D5918515A8E05B60D04D0DA
:1034C0002A893346296900F0A3F829782068890001
:1034D0004C4B425A80331A404C4B40331A434252B1
:1034E000A8698019A861286982192A616B69002B73
:1034F00002D0E868B04204D929782046FDF797FF4A
:1035000003E029782046FEF7FFF9684600880006A8
:1035100064D51C204743206801993A4A415A3D1915
:103520001140019A28358152A87A0028206811D0CC
:1035300029788A00825C52061ED55022125AC90090
:1035400012182F480818105A83059B0DAB6124D020
:10355000EA881EE05021095A09182878C200284834
:103560001018085A83059B0DAB6121D0AA882969E0
:10357000206800F062F81BE05022125AC9001218AD
:103580001F48001D0818105A83059B0DAB6104D01D
:103590002A892969206800F050F829782068890074
:1035A000184B425A80331A40174BF1331A43425298
:1035B00020685021095A09182878C20010481018AC
:1035C000085A8005800DA86129690A182A616B696B
:1035D0002978002B20460DD0FEF776FA20680146A8
:1035E00040318A886B469A81120400D582E6002019
:1035F00005B0F0BDFDF70FFFF0E700008F0F0000F2
:10360000020400000F8F00008FBF000080800000C8
:10361000101810B5012292025C088018002C07D007
:1036200002880A70120A4A70801C891C641EF7D135
:10363000DA0701D00078087010BD101801225B1C59
:10364000920210B55B088018002B08D04C780A78DD
:10365000240214430480801C891C5B1EF6D110BD1B
:10366000F8B50F460B46154600920321044600228A
:10367000C90200F01BF82026002812D13B46002288
:1036800080212046009500F05CF8002809D1032134
:103690003B46002249022046009500F007F800282A
:1036A00003D0206E304320660320F8BDF8B51D46D8
:1036B00016460F4604463DE0032149028F4205D1DC
:1036C000002E03D1007B694608700878681C31D051
:1036D000002D05D0FDF774FB0699401AA84229D3A6
:1036E00020684168E022914341606068C11FFD3954
:1036F0000CD10121A068C903884202D04911884237
:1037000004D1206801684022914301600121A06A30
:103710004903884207D1206802688A430260206812
:1037200002680A430260012040346077002020775D
:103730000320F8BD206881683940B142BCD1002027
:10374000F8BDF8B51D4617460E46044633E0681C22
:1037500031D0002D05D0FDF733FB0699401AA84261
:1037600029D320684168E022914341606068C11F0D
:10377000FD390CD10121A068C903884202D049114A
:10378000884204D1206801684022914301600121F0
:10379000A06A4903884207D1206802688A43026010
:1037A000206802680A4302600120403460770020EC
:1037B00020770320F8BD206881683046884304D014
:1037C0000020B842C3D10020F8BD0120F9E77047BE
:1037D00010B505F0F7FC10BD70B598B02A20009028
:1037E0000226102009960490C00201240A900320AA
:1037F00080040394079400250B9008940C95684668
:10380000FEF732FD002800D0FEE707201490169541
:1038100001211596179514A8FEF706FC002800D084
:10382000FEE70E480D90119513950F940DA8FEF725
:103830006BFB002800D0FEE7FEF7BCFC7D21C90031
:10384000FCF794FCFFF784F90420FFF775F90321D6
:103850000022081FFDF7B0FD18B070BD2100020066
:10386000124801680122114301604168104A114069
:10387000416001680F4A1140016001680122920411
:103880009143016041683F22120491434160C16A43
:1038900009090901C162016B074A11400163416BCB
:1038A00049084900416300218160704700100240CF
:1038B0000CB8FF08FFFFF6FE2CFEFCFF10B5024817
:1038C000FFF787F910BD0000B41E0020F0B50268B4
:1038D0001D4B0124A4071D4D984203D0A04201D0E6
:1038E000A84203D17026B2434E683243184E194F96
:1038F00098420DD0A0420BD0A84209D0164CA0424D
:1039000006D0B04204D0B84202D0144CA04204D138
:1039100003242402A243CC6822438024A2434C699E
:10392000224302608A68C2620A688262984206D0B4
:10393000B04204D0B84202D0084A904201D109698D
:10394000016301214161F0BD002C014000040040F1
:103950000040014000440140002000400048014078
:1039600010B5818CC90707D001684A6801235B0440
:103970009A43836A1A434A60818C890707D5016894
:103980004A6801231B049A43C36A1A434A60818C24
:10399000490707D501684A6801239B049A43036BD2
:1039A0001A434A60818C090707D501684A680123D8
:1039B000DB039A43436B1A434A60818CC90607D5DF
:1039C00001688A6801231B039A43836B1A438A6048
:1039D000818C890607D501688A6801235B039A43B5
:1039E000C36B1A438A60818C490612D501684B6803
:1039F00001221205046C934323434B60016C9142F6
:103A000007D101684A6803235B059A43436C1A4354
:103A10004A60818C090607D501684A680123DB04E6
:103A2000806C9A4302434A6010BD0000F8B500253F
:103A30000446C566FDF7C4F9064616492068884263
:103A400002D0154988421DD10068144F000709D5DE
:103A500001213346002249052046009700F0CEF8A8
:103A600000280DD12068006840070BD5012133469E
:103A7000002289052046009700F0C0F8002801D0F8
:103A80000320F8BD202060346072A07225720020EF
:103A9000F8BD00000038014000440040FFFFFF0176
:103AA000F8B50446A3682269E569134362691020EA
:103AB00000212A43134322680E461568474F3D40B4
:103AC0001D4315602268536803252D03AB43E56849
:103AD0002B435360A369226A1343226895680B271E
:103AE0003F02BD431D4395603D4B25683D4F02039A
:103AF0009D420AD13B6B9B079B0F20D0012B14D01A
:103B0000022B14D0032B1BD10DE0374B9D4210D15B
:103B10003B6B03273F043B4011D09B1A05D09B1AF7
:103B200005D093420CD102200AE0042008E00820CE
:103B300006E02E4B9D4202D02D4B9D4200D100202D
:103B40000123E769DB039F4222D100280CD0022821
:103B50000DD0042813D0082817D001260A09120115
:103B60000807400F10432EE0FEF72AFB09E06168CA
:103B7000204A48088018FCF7F9FA81B2EEE7FEF710
:103B80002FFB616840004A08F4E761684808F1E7E4
:103B9000002808D0022809D004280CD0082815D005
:103BA00001263046F8BDFEF70BFB06E06168124ABD
:103BB000480880180DE0FEF713FB61684A0880187A
:103BC000FCF7D4FA80B22168C860EAE76168480867
:103BD000C018FCF7CBFA80B2E860E2E7F369FFEFC8
:103BE00000380140001002400044004000480040FE
:103BF000004C00400024F40000127A00FFB581B0B0
:103C00001E46174605460A9C1CE0601C1AD0002C74
:103C100004D0FDF7D5F8801BA04213D928680168AD
:103C2000FF22A13291430160286881684908490058
:103C30008160202060356872A872002028720320FD
:103C400005B0F0BD2868C1690298884304D00020FF
:103C5000B842DAD00020F3E70120F9E710B50446B6
:103C600005A000F0FFFEFF34FF340234A0690021FC
:103C700040300174084610BD555342445F435553CC
:103C8000544F4D5F4849445F44617461496E20253B
:103C9000640A000070B5064617A000F0E3FEF51DAB
:103CA000FF35FA35AC691BA0217800F0DBFE6178A6
:103CB0001EA000F0D7FE2078012811D04023224614
:103CC0000121286AFDF720FE1E490020225C0A54CB
:103CD000401C4028FAD31C4901200870002070BD08
:103CE000EA696178D26890473F2322460121304635
:103CF00000F0FCFBF2E70000555342445F4355538C
:103D0000544F4D5F4849445F446174614F7574205E
:103D100025640A00686869642D3E5265706F72748C
:103D20005F6275665B305D2025640A0068686964BF
:103D30002D3E5265706F72745F6275665B315D20F7
:103D400025640A00001F00206C04002010B5044602
:103D50000DA000F087FE8121204600F0ACFA012181
:103D6000204600F0A8FAFF34FF340234A06900288E
:103D700007D0E06980688047A06900F0FBFD002063
:103D8000A061002010BD0000555342445F435553CD
:103D9000544F4D5F4849445F4465496E697420251E
:103DA000640A000070B5054609A000F05BFEFF350F
:103DB000FF350235AC69E06C012806D1EA6961780B
:103DC000D268207890470020E064002070BD000099
:103DD000555342445F435553544F4D5F4849445FE8
:103DE0004550305F527852656164790A00000000E6
:103DF0002921018000487047700400200A210180B9
:103E000000487047A804002070B5064613A000F0D3
:103E100029FE3F2303228121304600F051FB3F233E
:103E200003220121304600F04BFB542000F0A4FD9A
:103E3000F51DFF35FA35A86100280CD00446002195
:103E400040300174E869406880473F2322460121E1
:103E5000304600F04BFB002070BD0000555342443B
:103E60005F435553544F4D5F4849445F496E6974F1
:103E70002025640A0000000002460220002904D028
:103E8000FF32FF3202320020D161704737B504465D
:103E9000154601A90CA000F0E5FD4320C000015922
:103EA000FF20FD30005D03280BD14031087C002845
:103EB00007D1012008742B4681212046019A00F089
:103EC000D3FB00203EBD0000555342445F43555391
:103ED000544F4D5F4849445F53656E645265706F3F
:103EE00072742025640A0000F8B505460C462FA020
:103EF00000F0B8FDEE1DFF360022FA362378602769
:103F0000B16910463B4028D0202B4CD16078801EF0
:103F1000030000F0E2FD0A11091C1C1C1C1C150DFD
:103F2000061CA07808643EE001222846403131E0BA
:103F30006088000A486436E001222846443129E0BE
:103F40000120C864A279284600F060F82BE02146E1
:103F5000284600F051F80220F8BD6378062B04D003
:103F60000A2B1AD00B2B1ED11BE06188090A2229CB
:103F700002D0212907D00BE0E288D22A00D9D22230
:103F8000F069006804E0E2880E48092A00D9092295
:103F90000146284600F056F805E00122284648313F
:103FA000F8E7A07888640020F8BD0000555342442B
:103FB0005F435553544F4D5F4849445F5365747593
:103FC000700A00009C04002010B58522920012584F
:103FD00052689047002010BD134610B50A460021D4
:103FE00000F084FA002010BD134610B50A460021E7
:103FF00000F03AFB002010BD10B50446802100F00F
:1040000005FB0021204600F001FB10BD10B5FF2389
:104010000324F5331C50C31DF9339A60DA6013464C
:104020000A46002100F062FA002010BD10B5FF2101
:104030000522F5310A5000231A46194600F056FAB7
:10404000002010BD10B5FF230224F5331C508261FF
:104050001346C2610A46002100F006FB002010BD95
:1040600010B5FF210422F5310A5000231A461946E3
:1040700000F0FAFA002010BD10B50A46024903A06C
:1040800000F0CBF8004810BD341E002044502048FA
:10409000494420434F4E4600122008800048704794
:1040A0002403002010B50A46024903A000F0B5F829
:1040B000004810BD341E0020445020484944204987
:1040C00046000000042008800048704720030020BC
:1040D00010B50A46024903A000F09FF8004810BD41
:1040E000341E002064656B754E756B656D000000B5
:1040F00010B50A46024903A000F08FF8004810BD31
:10410000341E00206475636B79506164283230324C
:104110003029000010B50C4604F04AFE2246024940
:1041200000F07BF8004810BD341E0020F8B50D46A5
:1041300004464988FF300A0AFF300230130000F0BD
:10414000CCFC08500509165050454D500069237CA1
:1041500002681EE0217C02264069002905D0C16A60
:10416000684688470146467047E0816AF8E7CAB268
:10417000130000F0B2FC06040B12161A1E2400698C
:10418000227C436869461046984716E00069237C04
:1041900082686946184690470FE00069237CC26830
:1041A000F7E70069237C0269F3E70069237C426931
:1041B000EFE70069237C8269EBE701461DE0406977
:1041C000C9B2836B6A4620469847F6E7217C0029EE
:1041D00007D14069416B68468847EEE7217C00299A
:1041E00004D029462046FFF707FFF8BD4069016B60
:1041F00068468847072201464270684600880028C2
:10420000F3D0EA88002AF0D0824200D902466846FC
:1042100002802046FFF716FFF8BD70B50023002886
:104220001CD00446002502E06D1CEDB2641C26780B
:10423000002EF9D16C00A41C1480CC5403225B1C0A
:10424000CA5400245B1C06E0CA545B1CDAB28C54CE
:10425000521CD3B2401C0278002AF5D170BD10B5B3
:10426000002813D0C31DFF33FA335C69002C01D042
:1042700000245C61002900D01961FF210123FD3178
:104280000B54027000F0C2F8002010BD022010BDD7
:1042900010B5FF30FF3002300024006AFDF78AF9C4
:1042A000002806D0012801D0022801D0022400E015
:1042B0000124204610BD10B5FF30FF30023000242D
:1042C000006AFDF7C3F8002806D0012801D00228B3
:1042D00001D0022400E00124204610BDFEB50446B2
:1042E000FF30E51DE130FF35FA3513460190002916
:1042F00008D068694269002A49D00198007F0328E4
:1043000043D044E02646FF3681362046716F143094
:10431000022934D1C26881680092914207D9891A72
:1043200081608AB219462046FFF75EFE13E04768B7
:1043300011463846FBF71AFF002913D1009887422F
:1043400010D3B06F87420DD2002211462046FFF7EE
:104350004BFE0020B06700231A461946204600F0A5
:10436000C5F80CE06869C168002905D00198007F94
:10437000032801D1204688472046FFF757FE2878BA
:10438000012804D10020287001E020469047002039
:10439000FEBD70B50E460146FF31E1310B462033BC
:1043A00015460446002E07D058698269002A2AD093
:1043B000087F032824D026E0FF22F532E01D1259A1
:1043C000FD30032A1FD1C6688268B2420BD9931B05
:1043D00083603046834200D303469AB22946204682
:1043E000FFF7FAFD0FE058690269002A04D0087F40
:1043F000032801D1204690472046FFF731FE02E016
:10440000314620469047002070BD000010B51B4982
:10441000C41DC861FF341A49FA341A482162086081
:10442000022208208A6048600020C8608861C86154
:104430000A6108620846FDF795FC002804D0FF21B8
:10444000353111A000F00CFB002218231146206A20
:10445000FCF7C4FF582300228021206AFCF7BEFF2E
:10446000982300228121206AFCF7B8FFD82300227C
:104470000121206AFCF7B2FF002010BD041E0020BD
:10448000041C0020005C00402E2E2F5372632F75F9
:104490007362645F636F6E662E630000FF30CA094B
:1044A000FF3049060230490E1C23006A59430818A0
:1044B000002A01D0203001E0FF300130807A7047BF
:1044C00070B5FF301D46FF30023013460024006AED
:1044D0002A46FDF7C9F8002806D0012801D0022895
:1044E00001D0022400E00124204670BD10B5FF3049
:1044F000FF3002300024006AFDF706FA002806D0DB
:10450000012801D0022801D0022400E00124204625
:1045100010BD70B50022044640231146FFF7D0FFBE
:104520004025FF20113005512B46002280212046D6
:10453000FFF7C6FFFF200121FD3025620155E01D78
:10454000FF30FA308169002904D04069217942683E
:1045500020469047002070BDFF30E130417F017759
:104560000020704710B5FF21FD31095C032906D1F9
:10457000852189000958C969002900D08847002091
:1045800010BD01740020704710B5FF30FF300230BD
:104590000024006AFDF77AFC002806D0012801D02B
:1045A000022801D0022400E00124204610BD70B58D
:1045B00005464120C0002818044600F068F8294646
:1045C000FF3181310122084680304A67C2898A67FB
:1045D000017AC806C00E0AD001280DD0022810D0DA
:1045E000C909C901284600F011F8002070BD214614
:1045F000284600F0B6F8F8E72146284600F09DF975
:10460000F3E72146284600F023F9EEE710B5FF3026
:10461000FF3002300024006AFDF710FA002806D0AF
:10462000012801D0022801D0022400E00124204604
:1046300010BD10B5FF30FF3002300024006AFDF7D6
:1046400046FC002806D0012801D0022801D002240F
:1046500000E00124204610BDFF30E130017F4177AA
:10466000042101770020704710B5FF30FF30023081
:104670000024006AFDF728FA002806D0012801D09E
:10468000022801D0022400E00124204610BD0A784F
:1046900002704A784270CB788A781B02D218428026
:1046A0004B790A791B02D21882808A79C97909026A
:1046B0005118C180704702460020002904D0FF3203
:1046C000FF320232516170470220704710B58522D7
:1046D000920012580224002A04D012689047002841
:1046E00000D10024204610BD70B50D468978194EC2
:1046F00004463170012904D929462046FFF77CFC85
:1047000070BD2046FF30E130027F022A15D0032A17
:10471000F2D1002917D0606888420AD0C1B2204681
:10472000FFF752FC317861602046FFF7CFFF022887
:10473000E2D02046FFF794FC70BD0029F9D0032297
:1047400061600277F0E70222027720466160FFF79E
:104750003BFCEEE72C04002010B5FFF76AFF0020B9
:1047600010BDF8B505460020EA1D0090FF324F78D5
:10477000FA3214460126203C3B0000F0AEF90A3B19
:10478000555A505A0A065A29255A2846FFF7CEFC90
:104790005CE0888800284CD1C888002849D18878F6
:1047A0004706207F7F0E032843D0A7773946284647
:1047B000FFF7EAFE2846FFF753FC002F02D0022045
:1047C000207743E0267741E02846FFF78DFF3DE064
:1047D000CA88012A2DD1227F022A02D0032A28D199
:1047E00004E0012229460831A86001E00122291DC8
:1047F00028460EE0237F2846022B01D0032B0BD145
:10480000C6605168002901D00321C160014602221F
:104810000C31FFF717FC19E0FFF7EEFB16E04888B4
:10482000012813D156600AE0237F022B03D0032B0B
:1048300001D02846F0E74B88012B07D15060506922
:104840008268284690472846FFF70AFC0098F8BD82
:10485000F8B504460D462878E61D4006FF360027C9
:104860000979800FFA36012809D06A783046203855
:10487000002A38D0012A1ED0032A3DD106E07069F3
:1048800029468268204690470020F8BD007F022814
:1048900017D003282CD16888002806D1002904D01D
:1048A000802902D02046FFF7B1FE70692946826850
:1048B0002046904713E0007F022802D0032817D13A
:1048C00004E0002918D080291AD115E06888002852
:1048D00012D1480603D02046FFF7DAFCE5E7204670
:1048E000FFF7BEFB08E0007F022807D003280BD0AB
:1048F00029462046FFF780FB3846F8BD4806FBD026
:104900002046FFF783FEF7E7C80904D04806400DAC
:104910000519143504E04806400D0519FF35053525
:104920002046FFF7BBFD002800D0012028600222AE
:1049300029462046FFF786FBDEE770B50446FF30C8
:10494000E130007F0D4603280FD1287901280CD8CB
:10495000852080000059826820469047E88800281A
:1049600006D12046FFF77CFB02E02046FFF744FB20
:10497000002070BD7047000000487047AC1B00204D
:1049800010B50248FDF768F910BD0000041C0020B6
:1049900010B5054802F0E0FE002803D003480121CD
:1049A0000170007810BD000078190020E602002098
:1049B000002910D00948012909D0022903D0032970
:1049C00007D00120704701204002108003E04068BA
:1049D00000E0806810600020704700007819002017
:1049E000F8B51D4616460F4600240AE06002C219BB
:1049F0003119064806F0DAFB002801D00120F8BD85
:104A0000641CAC42F2D30020F8BD000078190020ED
:104A100005480068002801D00020704703480121A4
:104A2000017000787047000078190020E60200202D
:104A3000F8B51D4616460F4600240AE06002C2196A
:104A40003119064806F0F2FC002801D00120F8BD1B
:104A5000641CAC42F2D30020F8BD0000781900209D
:104A6000FEE700000FB410B503A9044B044A0298F6
:104A700000F054F810BC08BC04B01847996E000848
:104A8000000500200FB410B504A9074B02AA039833
:104A900000F044F8044602A9002000F079FA20460C
:104AA00010BC08BC04B01847914F00082021020C2C
:104AB00001D010211046020A01D01046083902091F
:104AC00001D01046091F820801D01046891E4208F5
:104AD00001D0881E7047081A704730B47446641EAF
:104AE0002578641CAB4200D21D46635D5B00E31871
:104AF00030BC1847004870470C05002002E008C889
:104B0000121F08C1002AFAD170477047002001E047
:104B100001C1121F002AFBD170470000FFB591B000
:104B20000F460546002606E025280AD0149A139958
:104B300090476D1C761C28780028F5D1304615B0BA
:104B4000F0BD002400940121F34A029400E00443E4
:104B50006D1C2B780846203B98401042F7D12878EE
:104B60002A280ED00222287801463039092915D882
:104B700000990A2359433039401814436D1C0090A2
:104B8000F1E701CF0090002805DA0120400304433B
:104B9000009840420090022004436D1C28782E2883
:104BA00015D10420044368786D1C2A280AD101CF4E
:104BB0006D1C02900BE002990A22514330394018D3
:104BC0006D1C02902878014630390929F3D92878DC
:104BD0006C2810D006DC4C281AD068280ED06A2821
:104BE00017D104E0742813D07A2812D110E00120E4
:104BF000400504430CE00121090501E003210905FA
:104C00000C436978814203D10120000524186D1CF2
:104C10006D1C28786E281ED00CDC632831D004DC93
:104C200000288BD0582811D1B2E064287BD06928A5
:104C30000CD178E073282DD004DC6F2870D0702858
:104C400004D1A7E075286CD078286BD0149A1399FA
:104C50009047761C62E06002400F022807D00328CC
:104C60000AD0042838680AD006603F1D56E038682C
:104C7000F11706604160F8E738680680F5E70670CE
:104C8000F3E73878694608740020487404A8039054
:104C9000012003E0386803900020C0433F1D6107F6
:104CA0000FD5002101E00199491C029A019191421E
:104CB00013DA8142F7DB019A0399895C0029F2D16A
:104CC0000BE0002101E00199491C01918142FADBCE
:104CD000019A0399895C0029F5D101990098139AEA
:104CE000401A00902146149B00F03CF9019980196C
:104CF000461807E0039803990078491C0391149A19
:104D0000139990470198401E0190401CF2D1214612
:104D1000149B139A009800F015F986196D1C0AE788
:104D200041E033E034E00A20002104900591600264
:104D3000410F022905D001CFC2179446032905D09F
:104D400007E0FF1DFF08FF0003CF06E000B2C21717
:104D50009446042902D140B2C1178C460022614614
:104D6000944506DA0A460021404291418C462D21A5
:104D700002E0210504D52B216A461176012103E0CA
:104D8000E10701D02021F7E7019155E00A200BE06F
:104D9000102009E010200490002104200443082082
:104DA0000591029003E00820002105910490600223
:104DB000410F022905D001CF00229446032906D0D5
:104DC00006E0FF1DFF08FF0003CF8C4603E080B222
:104DD000042900D1C0B20021019121072CD52978E6
:104DE0000391702906D0049A1021059B4A401A436A
:104DF00005D00EE040216A461176012108E06146A7
:104E0000014306D030216A4611760399517602217A
:104E10000191049A0821059B4A401A430CD161462E
:104E2000014301D1610707D530216A46117601217E
:104E300001910299491E02912978582904D037A17D
:104E400003910FA90F910DE039A1F9E76146059B88
:104E5000049AFBF767FC039B8C469B5C0F9A521EDF
:104E60000F92137061460143F0D10F9807A9081AF9
:104E700020300390600704D5012000048443029889
:104E800001E0012002900399884201DD401A00E010
:104E9000002041180290019809180098401A0090CB
:104EA000E00306D42146149B139A009800F05AF8A8
:104EB00086190020049008E006A9085C149A13994A
:104EC00090470498401C761C049001998842F3DBBB
:104ED000E0030CD52146149B139A009800F042F889
:104EE000861904E0149A302013999047761C029991
:104EF000481E02900029F5DC08E00F980F99007811
:104F0000491C0F91149A13999047761C0399481ED7
:104F100003900029F1DCFAE6092801003031323330
:104F200034353637383961626364656600000000E5
:104F300030313233343536373839414243444546CF
:104F400000000000F8B5044600251E4617468804F8
:104F500004D405E039462020B0476D1C641EF9D505
:104F60002846F8BDFFB50446002581B01E46C8039B
:104F700001D5302700E02027880404D505E0384615
:104F80000399B0476D1C641EF9D5284605B0F0BDE5
:104F90000A68531C0B6010707047000070B50C4D10
:104FA0000024A001022340191A460A4903F04AFBD3
:104FB000641C042CF5DB04240649A00102234019DB
:104FC0001A46C91E03F03EFB641C0F2CF4DB70BDB7
:104FD00078140020A70200202B4C02E0142004F0DB
:104FE00069F820780028F9D000F05CF8274E284FA7
:104FF000142004F05FF803F08DFA3078002807D011
:1050000002F094F90020307040212248FBF715F996
:1050100060780028ECD13868002808D0FBF7D0FE73
:10502000E168401A3968884201D906F077FCFBF73D
:10503000C7FEE168401A1849884202D9012006F0EB
:105040004DFCA0780028D3D1FBF7BAFEA1688842B6
:10505000CED912480078002810D0FBF7C3F80321FE
:10506000FBF79AF8491E4DB2FBF7BCF80321FBF79A
:1050700093F8491E48B2294605F0E8F8FBF7A0FE70
:1050800007494018A060B3E7800200206C040020AC
:1050900050020020001F0020E09304003402002092
:1050A000C0D4010030B5054D0024A001E1B2401983
:1050B00003F0B4FA641C0F2CF7DB30BD7814002029
:1050C00070B516460A4604463146104602F018F9F5
:1050D0000546FBF732F9610062180A495418FF349B
:1050E000A13460703146284602F00AF90546FBF704
:1050F00024F9A0703146284602F002F9FBF71DF9A9
:10510000E07070BD940E0020F8B5184D00202854B2
:10511000401C0F28FBDB0F21144806F042FA144E06
:105120000024600021181348A5010918FF31A819AF
:1051300008230122A23103F085FA0C48005DFBF739
:105140009DFA00220C4BFBF7B9F907460091705904
:10515000FBF794FA3A46009BFBF7FCF8FBF79CFA46
:10516000641C70510F2CDCDBF8BD000038180020E7
:1051700078140020940E00200000F83F70B505F070
:10518000FFFB1E2003F096FF002006F07DFA0821A9
:10519000222006F0FBFA304C012306CC2FA0083C5D
:1051A00006F086FB1E21192006F0F0FA06CC01233A
:1051B0002DA0083C06F07CFB1E21622006F0E6FADA
:1051C00006CC012329A0083C06F072FB3521012002
:1051D00006F0DCFA06CC012325A006F069FB06F0F8
:1051E000DBFA00F043FE06F07FF9274D274E2848F2
:1051F000FCF75AF802F0AEFD0024600020184019B8
:1052000002F0FDFA002826D1641C0F2CF5DB1E48A5
:105210002D3002F0F4FA002809D03078401E40B258
:105220003070002801DA0020307006F06FF916485F
:10523000303002F0E4FA002809D03078401C40B247
:105240003070052801DB0420307006F05FF9322051
:1052500003F030FFCBE770BD0400002042726967A5
:1052600068746E65737300002D0000002B00000051
:10527000507265737320616E79206B657920746F4D
:105280002065786974000000BA0A0020A00200209E
:105290009418002070B5264C034601222078002186
:1052A00065186D78002D00D00022491C2029F7DBFD
:1052B000002A23D0002006F0E7F90D210A2006F08D
:1052C00065FA1C4C012306CC1BA0083C06F0F0FA42
:1052D0002521002006F05AFA06CC01231B48083C81
:1052E00006F0E6FA3221122006F050FA06CC01232D
:1052F000174806F0DDFA06F04FFA70BD002B04D017
:10530000411E1F2908DD1F2007E0411C1F2901D96C
:10531000002002E0401C00E0401EC0B22118497885
:105320000029EBD00122114605F08AFB70BD000078
:10533000940E0020040000204E6F2056616C6964BA
:105340002050726F66696C6573000000D002002007
:105350006C02002010B50446FF30FF3000220230FE
:105360000271521E0263204603F008FE002801D09D
:10537000032010BDFF20FF30005B1349884201D09D
:10538000022010BD20462030427E817D120611434E
:10539000027EC07D120400020243114308020B4941
:1053A00088420DD04034627DA07C12061043227DDD
:1053B000E37C12041B021A4310430002884201D10D
:1053C000002010BD012010BD55AA00000046415428
:1053D00070B5FBF7F5FC0446094D0A4E04E0FBF7F7
:1053E000EFFC001BA84206D830780028F7D006480A
:1053F00080780C2801D0002070BD012070BD000015
:10540000C40900006C040020001F002000E0401CC4
:105410000278002A01D08A42F9D1D0B27047000048
:1054200070B50C46054607A12046FFF72BFB284622
:10543000FAF71BFF0246093A691DE01CFAF708FF5C
:1054400070BD000025642E200000000010B5446AE5
:1054500000680A46FF30FF3002308178500A241D70
:10546000FAF784FE02CC002904D0884204D3401A03
:10547000241DF7E7002010BD2168081810BDFF307B
:10548000FF3002308269891E921E8A4201D80020B4
:1054900070478278C06A4A4310187047F3B50C7899
:1054A000BF2004400D20641E4443002681B00F46F7
:1054B00001251548805DC019417802780802104323
:1054C000002D0DD001F0B2FA0546202C18D2610053
:1054D0000198641C405A01F0A9FAA84210D102E0D8
:1054E0000A4988420CD1761C0D2EE2D3387840064A
:1054F00008D5002D06D001986100405A002801D03F
:105500000020FEBD0120FEBDD0D50008FFFF000039
:1055100030B50446002002460EE0030AA55C0002F6
:1055200003436B401806000F5840030343409BB2EF
:105530001806C00C5840521C8A42EEDB30BD484071
:1055400000218922030600D550404006000E491C68
:105550000829F7DB70470000F3B581B0019D0F46C5
:10556000FF35FF350235002906D0019801F013FD03
:10557000022809D20120FEBD2E69002E02D0A869A2
:10558000B04207D8012605E0411CF4D0A969814248
:10559000F1D83E463446A869641CA04202D80224D1
:1055A000022E0BD32146019801F0F5FC002807D00C
:1055B000411CE0D00128DED0B442ECD10020FEBD79
:1055C000114A2146019805F021F9002808D1002F41
:1055D0000BD022463946019805F018F9002804D06E
:1055E00001280DD001242046FEBD2C616869411CB4
:1055F000F9D0401E68616879012108436871F2E7BB
:105600000024E443EFE70000FFFFFF0FF3B585B090
:105610000698056800E06D1C28782F28FBD05C28D0
:10562000F9D005980024C06926460490A85D761C30
:10563000202817D32F2815D05C2813D0202C34D243
:10564000012101F0ADF907002FD0802F05D20146CE
:105650006AA0FFF7DBFE002827D161000498641CD4
:105660004752E3E7AA19069920280A6001D20426C6
:1056700019E0002617E00498610008184038C08F30
:1056800020280FD02E280DD0002C0ED004980021F9
:105690006200815205980B228069202103F018FCDA
:1056A000002706E0641E002CE5D1062007B0F0BDFF
:1056B0007F1C04987900405A2028F9D02E28F7D072
:1056C000002F03D00320064300E0641E002C06D008
:1056D0000498610008184038C08F2E28F5D10020AA
:1056E000009001900820039004987900455A7F1C8F
:1056F000002D22D0202D03D02E2D04D1A74202D080
:1057000003200643F0E703990098884201D2A7429C
:1057100019D10B290FD0A74201D003200643A7427D
:105720000BD8082000900B20039001982746800694
:10573000000E0190D8E703200643059880690178A0
:10574000E52935D036E0802D0DD30021284601F023
:1057500027F9050003D02C4840198038057802202D
:105760000643002D05D0294628A0FFF74FFE00284C
:1057700003D05F250320064312E02846413819284C
:1057800004D8019802210843019009E028466138B5
:10579000192805D8019801210843203DADB2019098
:1057A0000598816900980D540098401C00909BE773
:1057B0000521017003980828019802D18006000E87
:1057C00001900007800F032803D00199C94389077E
:1057D00001D102210E43B1070AD401998907890F2B
:1057E000012901D110210E43012801D108200643CF
:1057F00005988069C672002058E70000222A3A3CCA
:105800003E3F7C7F0000000050D500082B2C3B3D24
:105810005B5D000010B503F0BFFA03F04BFC10BD58
:10582000F7B58AB0044601461546684600F0A3FD68
:1058300000283BD101E0401C80B2215C0029FAD154
:105840002F212154401C86B22946684600F09EFE56
:1058500007001DD1687A00281AD000210B9A701811
:10586000904207D26A18537A2354507A491C89B25D
:105870000028F3D1287AC00605D52A4620460B9980
:10588000FFF7CEFF02E0204600F035FF0700DBD037
:10589000761E0020B1B26054684600F077FB002FFE
:1058A00003D1204600F027FF074638460DB0F0BD73
:1058B000F8B50446002100F045FA00285DD1FF2527
:1058C0002E48009520842169206803F057FB0700CB
:1058D00052D166693078002809D0F17A8906890E9C
:1058E000E52840D00A0704D50F293CD106E004275B
:1058F00042E00F2902D0002D1DD023E0E269002AEA
:1059000034D0410606D5717B0091BF210840E18863
:1059100005462184A8420BD1717B0098814207D1B2
:1059200031461046FFF7BAFD002801D06D1E00E099
:10593000FF25EDB21AE0304606F010F80146009857
:10594000814219D0A069C17AC9070CD10B2100226C
:10595000491E06D332780378401C761CD21AF7D041
:1059600001E0002A08D00548FF25208400212046B8
:1059700000F006F80700A6D03846F8BDFFFF00008B
:10598000F8B5C78804467F1C38040E46000C35D095
:105990002069002832D039076CD1401C2061E168B1
:1059A000002924D0374B20683A091B5C5B1E1A4241
:1059B00060D101F0F0FA0546012823D9681C3BD0DC
:1059C00043212068C9000958A9424DD8002E15D09E
:1059D000E168FFF7C1FD050012D0012D12D0681C4F
:1059E0002AD0206806F011F8002825D10CE02068A4
:1059F000FF30FF3002300089B8423BD80420F8BDA8
:105A00000720F8BD0220F8BD0122520200212068C3
:105A100003F05EFA29462068FFF731FD2168FF3167
:105A2000FF3102310026086310E001210171206876
:105A300005F0EBFF002801D00120F8BD2068FF3001
:105A4000FF300230016B491C761C01632068FF3077
:105A5000FF3002308178B142E7D82168FF31FF3151
:105A60000231096B891B0163E56029462068FFF755
:105A700006FD2061E78039072068C90D4018606184
:105A80000020F8BD02020000F3B5FF2581B00446F6
:105A90000426009570E0206803F070FA060070D1CB
:105AA00062691078002810D0D17A8906890EE5281D
:105AB00009D02E2807D0DF230B40082B07D0002366
:105AC000029FBB4205D0FF2545E0042659E0012393
:105AD000F6E70F2902D0002D4BD143E0410606D551
